:020000042001D9
:1000000037410080EF00000101A082800CC1828096
:100010000841828041114AC0372901101305890324
:1000200006C626C222C4ED379375F5FD1305890374
:10003000F13F13058900E93F936505021305890027
:10004000F1371305C900E937936505021305C900A7
:10005000753F130509046D3F9375F5FDB7841E00C8
:100060001305090465373109938404484A854D37DF
:10007000936505024A85593F01442285050471377D
:10008000E31D94FE4A8569379375F5FD4A85BD3FAA
:0E009000014422850504953FE31D94FEC1BF87
:0400000520010000D6
:00000001FF
